:020000023000CC
:10E000000D949AF00D94BBF00D94BBF00D94BBF001
:10E010000D94BBF00D94BBF00D94BBF00D94BBF0D0
:10E020000D94BBF00D94BBF00D94BBF00D94BBF0C0
:10E030000D94BBF00D94BBF00D94BBF00D94BBF0B0
:10E040000D94BBF00D94BBF00D94BBF00D94BBF0A0
:10E050000D94BBF00D94BBF00D94BBF00D94BBF090
:10E060000D94BBF00D94BBF00D94BBF00D94BBF080
:10E070000D94BBF00D94BBF00D94BBF00D94BBF070
:10E080000D94BBF00D94BBF00D94BBF00D94BBF060
:10E090000D94BBF00D94BBF00D94BBF00D94BBF050
:10E0A0000D94BBF00D94BBF00D94BBF00D94BBF040
:10E0B0000D94BBF00D94BBF00D94BBF00D94BBF030
:10E0C0000D94BBF00D94BBF00D94BBF00D94BBF020
:10E0D0000D94BBF00D94BBF00D94BBF00D94BBF010
:10E0E0000D94BBF00D94BBF00D94BBF00D94BBF000
:10E0F0000D94BBF00D94BBF00D94BBF00D94BBF0F0
:10E100000D94BBF00D94BBF00D94BBF00D94BBF0DF
:10E110000D94BBF00D94BBF00D94BBF00D94BBF0CF
:10E120000D94BBF00D94BBF00D94BBF00D94BBF0BF
:10E130000D94BBF011241FBECFEFD1E8DEBFCDBFE1
:10E1400001E00CBF12E0A0E0B2E0ECEEF8EE03E07C
:10E150000BBF02C007900D92A430B107D9F70F94FE
:10E16000D8F00D9474F401E80EBF0FEF0DBF112429
:10E170001FBE0D94D8F00D9400F08093C6008091DE
:10E18000C00086FFFCCF8091C00080648093C000F7
:10E19000089520E030E008C0EFECF7E03197F1F7A8
:10E1A00000C000002F5F3F4F28173907A9F70895D7
:10E1B000CF93DF93CDB7DEB7C053D1400FB6F894FD
:10E1C000DEBF0FBECDBF209A289A03E010E028984A
:10E1D00084E690E00F94C9F0289A84E690E00F94CA
:10E1E000C9F00150110999F78091C00082608093B5
:10E1F000C00082E28093C40088E18093C1000000E7
:10E20000C12CD12C760138E5832E3BE1932EA12C35
:10E21000B12C772473942FC025E02A95F1F70000E4
:10E220003FEFC31AD30AE30AF30A01E010E041E129
:10E23000C41648E9D40642E0E406F10410F400E014
:10E2400010E0C701B601A50194010F9452F4672BA9
:10E25000682B692B19F485B1872585B98091C00099
:10E2600087FF05C0A8014F5F5F4F29F007C0011568
:10E27000110591F2F7CF00E010E0F0CF41305105E9
:10E2800009F4C9C20AE010E0E3C240E050E04130C6
:10E290005105C1F41EC04F5F5F4F6F4F7F4F41303C
:10E2A00092E159079AE76907710578F0C45DDE4F7E
:10E2B00048805980CC52D1404520409419F0EE2737
:10E2C000FF27099440E050E0BA019091C00097FF09
:10E2D000E2CF9091C600833029F120F4813061F0C3
:10E2E000E0F407C0853051F108F1863009F06CC0C8
:10E2F00035C09B3151F6CEC2913039F0C05DDE4F52
:10E300005881C053D1409513CBC26926C05DDE4F02
:10E310009883C053D14082E0B8CF392F20E06926DE
:10E3200083E0B3CF292B692684E0AFCF9E3009F07C
:10E33000B7C26926212C312C85E0A7CFE1E0F0E0BF
:10E34000EC0FFD1FE20DF31D9083AFEF2A1A3A0A7E
:10E3500069262216330609F098CFA0C29611A0C2F2
:10E360002981233109F421C1B0F4263009F40BC10D
:10E3700048F4223061F1233009F4ADC0213009F0B6
:10E38000DCC192C0213109F4B3C008F0F4C02031DF
:10E3900009F0D3C11CC0283109F4C5C048F42531A7
:10E3A00009F403C108F46BC1263109F0C6C167C185
:10E3B0002A3109F4ABC008F4CCC02B3109F49BC05E
:10E3C0002D3109F0BAC105C0873051F25ECF90E01F
:10E3D00090C08D81803331F4EF81F0E0EE0FFF1FAC
:10E3E00091E208C09E81803549F491110FC099E0F7
:10E3F000E0E0F0E09093570094914BC0883569F4C9
:10E40000983009F045C0E3E0F0E005C0983009F02D
:10E410003FC0E2E0F0E099E0EDCF9E818032D1F4A0
:10E42000C15EDE4F9883CF51D140C25EDE4F18826D
:10E43000CE51D1409F81C25EDE4FE881F981CE513D
:10E44000D140E92BEE0FFF1F6F01EE24D7FCE094C3
:10E45000FE2C1CC08832E1F4CF5DDE4F9883C152A0
:10E46000D140C05EDE4F1882C052D1409F81C05E55
:10E47000DE4FE881F981C052D140E92BEE0FFF1F3A
:10E480006F01EE24D7FCE094FE2C3196949101C0EC
:10E4900090E01A821B828C838E818D839E831F82E3
:10E4A00090E007E010E04EC11A8288E08B8381E49F
:10E4B0008C8386E58D8382E58E8389E48F8383E573
:10E4C000888780E589878FE58A8782E38B8790E05C
:10E4D0000BE010E037C1EA81E059E33028F4F0E0C6
:10E4E000E050FE4F808101C080E01A828B833FC0E4
:10E4F00091E01A8225C18D81882321F0813021F499
:10E5000088EA24C08EE122C083E020C01A82E1E0C4
:10E51000F0E089E080935700E491EB831C8290E067
:10E5200004E010E00FC18B81803551F48C8188307C
:10E5300019F4E2E0F0E006C089E0E0E0F0E003C0BA
:10E54000E3E0F0E089E08093570084911A828B83A6
:10E55000E5CF8D81836C99E0E1E0F0E0082E9093A7
:10E560005700E89507B600FCFDCF1A821B8290E0A9
:10E5700003E010E0E7C01A8290E002E010E0812C96
:10E58000912C5401DFC08A81CB80D12CE12CF12C5D
:10E590007601DD24CC24F82A8D81C82A8C81D82AE2
:10E5A000CC0CDD1CEE1CFF1C68C0FA81CD5DDE4F7B
:10E5B000F883C352D140CE5DDE4F1882C252D140A3
:10E5C0008B81CE5DDE4F48805980C252D140482AAF
:10E5D000C201233109F051C0811420EC920623E0DE
:10E5E000A206B10470F423E0F401A0925B00209332
:10E5F0005700E89507B600FCFDCF3FEF931AA30A3A
:10E60000B30A2B85DE011D96B701A60111E0FD01BD
:10E6100031974080CB5DDE4F4882C552D140CC5D02
:10E62000DE4F1882C452D140CC5DDE4F68807980C5
:10E63000C452D140622A93010901FA0160935B0040
:10E6400010935700E89511244E5F5F4F6F4F7F4F37
:10E65000029719F02C911296DACF85E0F601E0923C
:10E660005B0080935700E89507B600FCFDCF81E181
:10E6700080935700E8956A017B011A8260C07A8016
:10E68000C95DDE4F7882C752D140CA5DDE4F188225
:10E69000C652D1408B81CA5DDE4F48805980C65238
:10E6A000D140482AC2018C010D5F1F4F1A822431CC
:10E6B000C1F49E012C5F3F4FDE011396EBBEF601C5
:10E6C000479156914C93F90150831296F2E0CF0E88
:10E6D000D11CE11CF11C02972E5F3F4F009771F790
:10E6E00029C09C01B701A601FE01339641BD452E0C
:10E6F000562E672E772442BC4F5F5F4F6F4F7F4F80
:10E70000F89AA0B5A1932150310981F79C012150BD
:10E710003109A90160E070E04F5F5F4F6F4F7F4F9D
:10E72000C40ED51EE61EF71EA3E0B0E0AC0FBD1F61
:10E73000A80FB91F1C9290E005C080EC8A8390E07E
:10E7400002E010E08BE1C15DDE4F9883CF52D140F3
:10E750000F94BDF0C05DDE4F8881C053D1400F944F
:10E76000BDF0812F0F94BDF0802F0F94BDF08EE08F
:10E770000F94BDF025E1622EC05DDE4F7880C0535E
:10E78000D14067246026612621E030E02C0F3D1F38
:10E79000020F131F290116C0F20121912F01822FB0
:10E7A000C25DDE4F2883CE52D140C15DDE4F9883DB
:10E7B000CF52D1400F94BDF0C25DDE4F2881CE52C2
:10E7C000D1406226C15DDE4F9881CF52D1404016C4
:10E7D000510611F7862DC15DDE4F9883CF52D1408F
:10E7E0000F94BDF0C05DDE4F2881C053D1402F5F34
:10E7F000C05DDE4F2883C053D14085B121E0822720
:10E8000085B940E050E0C15DDE4F9881CF52D140E4
:10E810009923D1F037CDC05DDE4F1882C053D1406F
:10E82000612C93E0292E312C812C912C5401C12C88
:10E83000D12C7601ABBEF40147905690C45DDE4FFB
:10E8400059824882CC52D14020E030E080E01FCD98
:10E85000289888EC90E00F94C9F0289A88EC90E012
:10E860000F94C9F00150110999F728982098289819
:10E8700084E690E00F94C9F000008091C0008D7F85
:10E880008093C00081E180935700E895EE27FF2731
:10E890000994FFCF8BE1682E81E0F7CC86E0F5CCC0
:10E8A00080E0F3CCA1E21A2EAA1BBB1BFD010DC018
:10E8B000AA1FBB1FEE1FFF1FA217B307E407F50730
:10E8C00020F0A21BB30BE40BF50B661F771F881F0C
:10E8D000991F1A9469F760957095809590959B01A2
:0CE8E000AC01BD01CF010895F894FFCFFA
:04E8EC000F020A000D
:040000033000E000E9
:00000001FF
